:020000000000fe
:020001000000fd
:020002000000fc
:020003000000fb
:020004000000fa
:020005000000f9
:020006000000f8
:020007000000f7
:020008000000f6
:020009000000f5
:02000a000000f4
:02000b000000f3
:02000c000000f2
:02000d000000f1
:02000e000000f0
:02000f000000ef
:020010000000ee
:020011000000ed
:020012000000ec
:020013000000eb
:020014000000ea
:020015000000e9
:020016000000e8
:020017000000e7
:020018000000e6
:020019000000e5
:02001a000000e4
:02001b000000e3
:02001c000000e2
:02001d000000e1
:02001e000000e0
:02001f000000df
:020020000000de
:020021000000dd
:020022000000dc
:020023000000db
:020024000000da
:020025000000d9
:020026000000d8
:020027000000d7
:020028000000d6
:020029000000d5
:02002a000000d4
:02002b000000d3
:02002c000000d2
:02002d000000d1
:02002e000000d0
:02002f000000cf
:020030000000ce
:020031000000cd
:020032000000cc
:020033000000cb
:020034000000ca
:020035000000c9
:020036000000c8
:020037000000c7
:020038000000c6
:020039000000c5
:02003a000000c4
:02003b000000c3
:02003c000000c2
:02003d000000c1
:02003e000000c0
:02003f000000bf
:020040000000be
:020041000000bd
:020042000000bc
:020043000000bb
:020044000000ba
:020045000000b9
:020046000000b8
:020047000000b7
:020048000000b6
:020049000000b5
:02004a000000b4
:02004b000000b3
:02004c000000b2
:02004d000000b1
:02004e000000b0
:02004f000000af
:020050000000ae
:020051000000ad
:020052000000ac
:020053000000ab
:020054000000aa
:020055000000a9
:020056000000a8
:020057000000a7
:020058000000a6
:020059000000a5
:02005a000000a4
:02005b000000a3
:02005c000000a2
:02005d000000a1
:02005e000000a0
:02005f0000009f
:0200600000009e
:0200610000009d
:0200620000009c
:0200630000009b
:0200640000009a
:02006500000099
:02006600000098
:02006700000097
:02006800000096
:02006900000095
:02006a00000094
:02006b00000093
:02006c00000092
:02006d00000091
:02006e00000090
:02006f0000008f
:0200700000008e
:0200710000008d
:0200720000008c
:0200730000008b
:0200740000008a
:02007500000089
:02007600000088
:02007700000087
:02007800000086
:02007900000085
:02007a00000084
:02007b00000083
:02007c00000082
:02007d00000081
:02007e00000080
:02007f0000007f
:0200800000007e
:0200810000007d
:0200820000007c
:0200830000007b
:0200840000007a
:02008500000079
:02008600000078
:02008700000077
:02008800000076
:02008900000075
:02008a00000074
:02008b00000073
:02008c00000072
:02008d00000071
:02008e00000070
:02008f0000006f
:0200900000006e
:0200910000006d
:0200920000006c
:0200930000006b
:0200940000006a
:02009500000069
:02009600000068
:02009700000067
:02009800000066
:02009900000065
:02009a00000064
:02009b00000063
:02009c00000062
:02009d00000061
:02009e00000060
:02009f0000005f
:0200a00000005e
:0200a10000005d
:0200a20000005c
:0200a30000005b
:0200a400000159
:0200a500000158
:0200a600000157
:0200a700000156
:0200a800000155
:0200a900000154
:0200aa00000153
:0200ab00000152
:0200ac00000151
:0200ad00000150
:0200ae0000014f
:0200af0000014e
:0200b00000014d
:0200b10000014c
:0200b20000014b
:0200b30000014a
:0200b400000149
:0200b500000148
:0200b600000147
:0200b700000146
:0200b800000145
:0200b900000144
:0200ba00000143
:0200bb00000142
:0200bc00000141
:0200bd00000140
:0200be0000013f
:0200bf0000013e
:0200c00000013d
:0200c10000013c
:0200c20000013b
:0200c30000013a
:0200c400000139
:0200c500000138
:0200c600000137
:0200c700000136
:0200c800000135
:0200c900000134
:0200ca00000133
:0200cb00000132
:0200cc00000131
:0200cd00000130
:0200ce0000012f
:0200cf0000012e
:0200d00000012d
:0200d10000012c
:0200d20000012b
:0200d30000012a
:0200d400000129
:0200d500000128
:0200d600000127
:0200d700000126
:0200d800000125
:0200d900000124
:0200da00000123
:0200db00000122
:0200dc00000121
:0200dd00000120
:0200de0000011f
:0200df0000011e
:0200e00000011d
:0200e10000011c
:0200e20000011b
:0200e30000011a
:0200e400000119
:0200e500000118
:0200e600000117
:0200e700000116
:0200e800000115
:0200e900000114
:0200ea00000113
:0200eb00000112
:0200ec00000111
:0200ed00000110
:0200ee0000010f
:0200ef0000010e
:0200f00000010d
:0200f10000010c
:0200f20000010b
:0200f30000010a
:0200f400000109
:0200f500000108
:0200f600000107
:0200f700000106
:0200f800000105
:0200f900000104
:0200fa00000103
:0200fb00000102
:0200fc00000101
:0200fd00000100
:0200fe000001ff
:0200ff000001fe
:020100000001fc
:020101000001fb
:020102000001fa
:020103000001f9
:020104000001f8
:020105000001f7
:020106000001f6
:020107000001f5
:020108000001f4
:020109000001f3
:02010a000001f2
:02010b000001f1
:02010c000001f0
:02010d000001ef
:02010e000001ee
:02010f000001ed
:020110000001ec
:020111000001eb
:020112000001ea
:020113000001e9
:020114000001e8
:020115000001e7
:020116000001e6
:020117000001e5
:020118000001e4
:020119000001e3
:02011a000001e2
:02011b000001e1
:02011c000001e0
:02011d000001df
:02011e000001de
:02011f000001dd
:020120000001dc
:020121000001db
:020122000001da
:020123000001d9
:020124000001d8
:020125000001d7
:020126000001d6
:020127000001d5
:020128000001d4
:020129000001d3
:02012a000001d2
:02012b000001d1
:02012c000001d0
:02012d000001cf
:02012e000001ce
:02012f000001cd
:020130000001cc
:020131000001cb
:020132000001ca
:020133000001c9
:020134000001c8
:020135000001c7
:020136000001c6
:020137000001c5
:020138000001c4
:020139000001c3
:02013a000001c2
:02013b000001c1
:02013c000001c0
:02013d000001bf
:02013e000001be
:02013f000001bd
:020140000001bc
:020141000001bb
:020142000001ba
:020143000001b9
:020144000001b8
:020145000001b7
:020146000001b6
:020147000001b5
:020148000001b4
:020149000001b3
:02014a000001b2
:02014b000001b1
:02014c000001b0
:02014d000001af
:02014e000001ae
:02014f000001ad
:020150000001ac
:020151000001ab
:020152000001aa
:020153000001a9
:020154000001a8
:020155000001a7
:020156000001a6
:020157000001a5
:020158000001a4
:020159000001a3
:02015a000001a2
:02015b000001a1
:02015c000001a0
:02015d0000019f
:02015e0000019e
:02015f0000019d
:0201600000019c
:0201610000019b
:0201620000019a
:02016300000199
:02016400000198
:02016500000197
:02016600000196
:02016700000195
:02016800000194
:02016900000193
:02016a00000192
:02016b00000191
:02016c00000190
:02016d0000018f
:02016e0000018e
:02016f0000018d
:0201700000018c
:0201710000018b
:0201720000018a
:02017300000189
:02017400000188
:02017500000187
:02017600000186
:02017700000185
:02017800000184
:02017900000183
:02017a00000182
:02017b00000181
:02017c00000180
:02017d0000017f
:02017e0000017e
:02017f0000017d
:0201800000017c
:0201810000017b
:0201820000017a
:02018300000179
:02018400000178
:02018500000177
:02018600000176
:02018700000175
:02018800000174
:02018900000173
:02018a00000172
:02018b00000171
:02018c00000170
:02018d0000016f
:02018e0000016e
:02018f0000016d
:0201900000016c
:0201910000016b
:0201920000016a
:02019300000169
:02019400000168
:02019500000167
:02019600000166
:02019700000165
:02019800000164
:02019900000163
:02019a00000162
:02019b00000161
:02019c00000160
:02019d0000015f
:02019e0000015e
:02019f0000015d
:0201a00000015c
:0201a10000015b
:0201a20000015a
:0201a300000159
:0201a400000158
:0201a500000157
:0201a600000156
:0201a700000155
:0201a800000154
:0201a900000153
:0201aa00000152
:0201ab00000151
:0201ac00000150
:0201ad0000014f
:0201ae0000014e
:0201af0000014d
:0201b00000014c
:0201b10000014b
:0201b20000014a
:0201b300000149
:0201b400000148
:0201b500000147
:0201b600000146
:0201b700000145
:0201b800000144
:0201b900000143
:0201ba00000142
:0201bb00000141
:0201bc00000140
:0201bd0000013f
:0201be0000013e
:0201bf0000013d
:0201c00000013c
:0201c10000013b
:0201c20000013a
:0201c300000139
:0201c400000138
:0201c500000137
:0201c600000136
:0201c700000135
:0201c800000134
:0201c900000133
:0201ca00000132
:0201cb00000131
:0201cc00000130
:0201cd0000012f
:0201ce0000012e
:0201cf0000012d
:0201d00000012c
:0201d10000012b
:0201d20000012a
:0201d300000129
:0201d400000128
:0201d500000127
:0201d600000126
:0201d700000125
:0201d800000124
:0201d900000123
:0201da00000122
:0201db00000121
:0201dc00000120
:0201dd0000011f
:0201de0000011e
:0201df0000011d
:0201e00000011c
:0201e10000011b
:0201e20000011a
:0201e300000119
:0201e400000118
:0201e500000117
:0201e600000116
:0201e700000115
:0201e800000114
:0201e900000113
:0201ea00000211
:0201eb00000210
:0201ec0000020f
:0201ed0000020e
:0201ee0000020d
:0201ef0000020c
:0201f00000020b
:0201f10000020a
:0201f200000209
:0201f300000208
:0201f400000207
:0201f500000206
:0201f600000205
:0201f700000204
:0201f800000203
:0201f900000202
:0201fa00000201
:0201fb00000200
:0201fc000002ff
:0201fd000002fe
:0201fe000002fd
:0201ff000002fc
:020200000002fa
:020201000002f9
:020202000002f8
:020203000002f7
:020204000002f6
:020205000002f5
:020206000002f4
:020207000002f3
:020208000002f2
:020209000002f1
:02020a000002f0
:02020b000002ef
:02020c000002ee
:02020d000002ed
:02020e000002ec
:02020f000002eb
:020210000002ea
:020211000002e9
:020212000002e8
:020213000002e7
:020214000002e6
:020215000002e5
:020216000002e4
:020217000002e3
:020218000002e2
:020219000002e1
:02021a000002e0
:02021b000002df
:02021c000002de
:02021d000002dd
:02021e000002dc
:02021f000002db
:020220000002da
:020221000002d9
:020222000002d8
:020223000002d7
:020224000002d6
:020225000002d5
:020226000002d4
:020227000002d3
:020228000002d2
:020229000002d1
:02022a000002d0
:02022b000002cf
:02022c000002ce
:02022d000002cd
:02022e000002cc
:02022f000002cb
:020230000002ca
:020231000002c9
:020232000002c8
:020233000002c7
:020234000002c6
:020235000002c5
:020236000002c4
:020237000002c3
:020238000002c2
:020239000002c1
:02023a000002c0
:02023b000002bf
:02023c000002be
:02023d000002bd
:02023e000002bc
:02023f000002bb
:020240000002ba
:020241000002b9
:020242000002b8
:020243000002b7
:020244000002b6
:020245000002b5
:020246000002b4
:020247000002b3
:020248000002b2
:020249000002b1
:02024a000002b0
:02024b000002af
:02024c000002ae
:02024d000002ad
:02024e000002ac
:02024f000002ab
:020250000002aa
:020251000002a9
:020252000002a8
:020253000002a7
:020254000002a6
:020255000002a5
:020256000002a4
:020257000002a3
:020258000002a2
:020259000002a1
:02025a000002a0
:02025b0000029f
:02025c0000029e
:02025d0000029d
:02025e0000029c
:02025f0000029b
:0202600000029a
:02026100000299
:02026200000298
:02026300000297
:02026400000296
:02026500000295
:02026600000294
:02026700000293
:02026800000292
:02026900000291
:02026a00000290
:02026b0000028f
:02026c0000028e
:02026d0000028d
:02026e0000028c
:02026f0000028b
:0202700000028a
:02027100000289
:02027200000288
:02027300000287
:02027400000286
:02027500000285
:02027600000284
:02027700000283
:02027800000282
:02027900000281
:02027a00000280
:02027b0000027f
:02027c0000027e
:02027d0000027d
:02027e0000027c
:02027f0000027b
:0202800000027a
:02028100000279
:02028200000278
:02028300000277
:02028400000276
:02028500000275
:02028600000274
:02028700000273
:02028800000272
:02028900000271
:02028a00000270
:02028b0000026f
:02028c0000026e
:02028d0000026d
:02028e0000026c
:02028f0000026b
:0202900000026a
:02029100000269
:02029200000268
:02029300000267
:02029400000266
:02029500000265
:02029600000264
:02029700000263
:02029800000262
:02029900000261
:02029a00000260
:02029b0000025f
:02029c0000025e
:02029d0000025d
:02029e0000025c
:02029f0000025b
:0202a00000025a
:0202a100000259
:0202a200000258
:0202a300000257
:0202a400000256
:0202a500000255
:0202a600000254
:0202a700000253
:0202a800000252
:0202a900000251
:0202aa00000250
:0202ab0000024f
:0202ac0000024e
:0202ad0000024d
:0202ae0000024c
:0202af0000024b
:0202b00000024a
:0202b100000249
:0202b200000248
:0202b300000247
:0202b400000246
:0202b500000245
:0202b600000244
:0202b700000243
:0202b800000242
:0202b900000241
:0202ba00000240
:0202bb0000023f
:0202bc0000023e
:0202bd0000023d
:0202be0000023c
:0202bf0000023b
:0202c00000023a
:0202c100000239
:0202c200000238
:0202c300000237
:0202c400000236
:0202c500000235
:0202c600000234
:0202c700000233
:0202c800000232
:0202c900000231
:0202ca00000230
:0202cb0000022f
:0202cc0000022e
:0202cd0000022d
:0202ce0000022c
:0202cf0000022b
:0202d00000022a
:0202d100000229
:0202d200000228
:0202d300000227
:0202d400000226
:0202d500000225
:0202d600000224
:0202d700000223
:0202d800000222
:0202d900000221
:0202da00000220
:0202db0000021f
:0202dc0000021e
:0202dd0000021d
:0202de0000021c
:0202df0000021b
:0202e00000021a
:0202e100000219
:0202e200000218
:0202e300000217
:0202e400000216
:0202e500000215
:0202e600000214
:0202e700000213
:0202e800000212
:0202e900000211
:0202ea00000210
:0202eb0000020f
:0202ec0000020e
:0202ed0000020d
:0202ee0000020c
:0202ef0000020b
:0202f00000020a
:0202f100000209
:0202f200000208
:0202f300000207
:0202f400000206
:0202f500000205
:0202f600000204
:0202f700000203
:0202f800000202
:0202f900000201
:0202fa00000200
:0202fb000002ff
:0202fc000002fe
:0202fd000002fd
:0202fe000002fc
:0202ff000002fb
:020300000002f9
:020301000002f8
:020302000002f7
:020303000002f6
:020304000002f5
:020305000002f4
:020306000002f3
:020307000002f2
:020308000002f1
:020309000002f0
:02030a000002ef
:02030b000002ee
:02030c000002ed
:02030d000002ec
:02030e000002eb
:02030f000002ea
:020310000002e9
:020311000002e8
:020312000002e7
:020313000002e6
:020314000002e5
:020315000002e4
:020316000002e3
:020317000002e2
:020318000002e1
:020319000002e0
:02031a000002df
:02031b000002de
:02031c000002dd
:02031d000002dc
:02031e000002db
:02031f000002da
:020320000002d9
:020321000002d8
:020322000002d7
:020323000002d6
:020324000002d5
:020325000002d4
:020326000002d3
:020327000002d2
:020328000002d1
:020329000002d0
:02032a000002cf
:02032b000002ce
:02032c000002cd
:02032d000002cc
:02032e000002cb
:02032f000002ca
:020330000002c9
:020331000003c7
:020332000003c6
:020333000003c5
:020334000003c4
:020335000003c3
:020336000003c2
:020337000003c1
:020338000003c0
:020339000003bf
:02033a000003be
:02033b000003bd
:02033c000003bc
:02033d000003bb
:02033e000003ba
:02033f000003b9
:020340000003b8
:020341000003b7
:020342000003b6
:020343000003b5
:020344000003b4
:020345000003b3
:020346000003b2
:020347000003b1
:020348000003b0
:020349000003af
:02034a000003ae
:02034b000003ad
:02034c000003ac
:02034d000003ab
:02034e000003aa
:02034f000003a9
:020350000003a8
:020351000003a7
:020352000003a6
:020353000003a5
:020354000003a4
:020355000003a3
:020356000003a2
:020357000003a1
:020358000003a0
:0203590000039f
:02035a0000039e
:02035b0000039d
:02035c0000039c
:02035d0000039b
:02035e0000039a
:02035f00000399
:02036000000398
:02036100000397
:02036200000396
:02036300000395
:02036400000394
:02036500000393
:02036600000392
:02036700000391
:02036800000390
:0203690000038f
:02036a0000038e
:02036b0000038d
:02036c0000038c
:02036d0000038b
:02036e0000038a
:02036f00000389
:02037000000388
:02037100000387
:02037200000386
:02037300000385
:02037400000384
:02037500000383
:02037600000382
:02037700000381
:02037800000380
:0203790000037f
:02037a0000037e
:02037b0000037d
:02037c0000037c
:02037d0000037b
:02037e0000037a
:02037f00000379
:02038000000378
:02038100000377
:02038200000376
:02038300000375
:02038400000374
:02038500000373
:02038600000372
:02038700000371
:02038800000370
:0203890000036f
:02038a0000036e
:02038b0000036d
:02038c0000036c
:02038d0000036b
:02038e0000036a
:02038f00000369
:02039000000368
:02039100000367
:02039200000366
:02039300000365
:02039400000364
:02039500000363
:02039600000362
:02039700000361
:02039800000360
:0203990000035f
:02039a0000035e
:02039b0000035d
:02039c0000035c
:02039d0000035b
:02039e0000035a
:02039f00000359
:0203a000000358
:0203a100000357
:0203a200000356
:0203a300000355
:0203a400000354
:0203a500000353
:0203a600000352
:0203a700000351
:0203a800000350
:0203a90000034f
:0203aa0000034e
:0203ab0000034d
:0203ac0000034c
:0203ad0000034b
:0203ae0000034a
:0203af00000349
:0203b000000348
:0203b100000347
:0203b200000346
:0203b300000345
:0203b400000344
:0203b500000343
:0203b600000342
:0203b700000341
:0203b800000340
:0203b90000033f
:0203ba0000033e
:0203bb0000033d
:0203bc0000033c
:0203bd0000033b
:0203be0000033a
:0203bf00000339
:0203c000000338
:0203c100000337
:0203c200000336
:0203c300000335
:0203c400000334
:0203c500000333
:0203c600000332
:0203c700000331
:0203c800000330
:0203c90000032f
:0203ca0000032e
:0203cb0000032d
:0203cc0000032c
:0203cd0000032b
:0203ce0000032a
:0203cf00000329
:0203d000000328
:0203d100000327
:0203d200000326
:0203d300000325
:0203d400000324
:0203d500000323
:0203d600000322
:0203d700000321
:0203d800000320
:0203d90000031f
:0203da0000031e
:0203db0000031d
:0203dc0000031c
:0203dd0000031b
:0203de0000031a
:0203df00000319
:0203e000000318
:0203e100000317
:0203e200000316
:0203e300000315
:0203e400000314
:0203e500000313
:0203e600000312
:0203e700000311
:0203e800000310
:0203e90000030f
:0203ea0000030e
:0203eb0000030d
:0203ec0000030c
:0203ed0000030b
:0203ee0000030a
:0203ef00000309
:0203f000000308
:0203f100000307
:0203f200000306
:0203f300000305
:0203f400000304
:0203f500000303
:0203f600000302
:0203f700000301
:0203f800000300
:0203f9000003ff
:0203fa000003fe
:0203fb000003fd
:0203fc000003fc
:0203fd000003fb
:0203fe000003fa
:0203ff000003f9
:020400000003f7
:020401000003f6
:020402000003f5
:020403000003f4
:020404000003f3
:020405000003f2
:020406000003f1
:020407000003f0
:020408000003ef
:020409000003ee
:02040a000003ed
:02040b000003ec
:02040c000003eb
:02040d000003ea
:02040e000003e9
:02040f000003e8
:020410000003e7
:020411000003e6
:020412000003e5
:020413000003e4
:020414000003e3
:020415000003e2
:020416000003e1
:020417000003e0
:020418000003df
:020419000003de
:02041a000003dd
:02041b000003dc
:02041c000003db
:02041d000003da
:02041e000003d9
:02041f000003d8
:020420000003d7
:020421000003d6
:020422000003d5
:020423000003d4
:020424000003d3
:020425000003d2
:020426000003d1
:020427000003d0
:020428000003cf
:020429000003ce
:02042a000003cd
:02042b000003cc
:02042c000003cb
:02042d000003ca
:02042e000003c9
:02042f000003c8
:020430000003c7
:020431000003c6
:020432000003c5
:020433000003c4
:020434000003c3
:020435000003c2
:020436000003c1
:020437000003c0
:020438000003bf
:020439000003be
:02043a000003bd
:02043b000003bc
:02043c000003bb
:02043d000003ba
:02043e000003b9
:02043f000003b8
:020440000003b7
:020441000003b6
:020442000003b5
:020443000003b4
:020444000003b3
:020445000003b2
:020446000003b1
:020447000003b0
:020448000003af
:020449000003ae
:02044a000003ad
:02044b000003ac
:02044c000003ab
:02044d000003aa
:02044e000003a9
:02044f000003a8
:020450000003a7
:020451000003a6
:020452000003a5
:020453000003a4
:020454000003a3
:020455000003a2
:020456000003a1
:020457000003a0
:0204580000039f
:0204590000039e
:02045a0000039d
:02045b0000039c
:02045c0000039b
:02045d0000039a
:02045e00000399
:02045f00000398
:02046000000397
:02046100000396
:02046200000395
:02046300000394
:02046400000393
:02046500000392
:02046600000391
:02046700000390
:0204680000038f
:0204690000038e
:02046a0000038d
:02046b0000038c
:02046c0000038b
:02046d0000038a
:02046e00000389
:02046f00000388
:02047000000387
:02047100000386
:02047200000385
:02047300000384
:02047400000383
:02047500000382
:02047600000381
:02047700000380
:0204780000047e
:0204790000047d
:02047a0000047c
:02047b0000047b
:02047c0000047a
:02047d00000479
:02047e00000478
:02047f00000477
:02048000000476
:02048100000475
:02048200000474
:02048300000473
:02048400000472
:02048500000471
:02048600000470
:0204870000046f
:0204880000046e
:0204890000046d
:02048a0000046c
:02048b0000046b
:02048c0000046a
:02048d00000469
:02048e00000468
:02048f00000467
:02049000000466
:02049100000465
:02049200000464
:02049300000463
:02049400000462
:02049500000461
:02049600000460
:0204970000045f
:0204980000045e
:0204990000045d
:02049a0000045c
:02049b0000045b
:02049c0000045a
:02049d00000459
:02049e00000458
:02049f00000457
:0204a000000456
:0204a100000455
:0204a200000454
:0204a300000453
:0204a400000452
:0204a500000451
:0204a600000450
:0204a70000044f
:0204a80000044e
:0204a90000044d
:0204aa0000044c
:0204ab0000044b
:0204ac0000044a
:0204ad00000449
:0204ae00000448
:0204af00000447
:0204b000000446
:0204b100000445
:0204b200000444
:0204b300000443
:0204b400000442
:0204b500000441
:0204b600000440
:0204b70000043f
:0204b80000043e
:0204b90000043d
:0204ba0000043c
:0204bb0000043b
:0204bc0000043a
:0204bd00000439
:0204be00000438
:0204bf00000437
:0204c000000436
:0204c100000435
:0204c200000434
:0204c300000433
:0204c400000432
:0204c500000431
:0204c600000430
:0204c70000042f
:0204c80000042e
:0204c90000042d
:0204ca0000042c
:0204cb0000042b
:0204cc0000042a
:0204cd00000429
:0204ce00000428
:0204cf00000427
:0204d000000426
:0204d100000425
:0204d200000424
:0204d300000423
:0204d400000422
:0204d500000421
:0204d600000420
:0204d70000041f
:0204d80000041e
:0204d90000041d
:0204da0000041c
:0204db0000041b
:0204dc0000041a
:0204dd00000419
:0204de00000418
:0204df00000417
:0204e000000416
:0204e100000415
:0204e200000414
:0204e300000413
:0204e400000412
:0204e500000411
:0204e600000410
:0204e70000040f
:0204e80000040e
:0204e90000040d
:0204ea0000040c
:0204eb0000040b
:0204ec0000040a
:0204ed00000409
:0204ee00000408
:0204ef00000407
:0204f000000406
:0204f100000405
:0204f200000404
:0204f300000403
:0204f400000402
:0204f500000401
:0204f600000400
:0204f7000004ff
:0204f8000004fe
:0204f9000004fd
:0204fa000004fc
:0204fb000004fb
:0204fc000004fa
:0204fd000004f9
:0204fe000004f8
:0204ff000004f7
:020500000004f5
:020501000004f4
:020502000004f3
:020503000004f2
:020504000004f1
:020505000004f0
:020506000004ef
:020507000004ee
:020508000004ed
:020509000004ec
:02050a000004eb
:02050b000004ea
:02050c000004e9
:02050d000004e8
:02050e000004e7
:02050f000004e6
:020510000004e5
:020511000004e4
:020512000004e3
:020513000004e2
:020514000004e1
:020515000004e0
:020516000004df
:020517000004de
:020518000004dd
:020519000004dc
:02051a000004db
:02051b000004da
:02051c000004d9
:02051d000004d8
:02051e000004d7
:02051f000004d6
:020520000004d5
:020521000004d4
:020522000004d3
:020523000004d2
:020524000004d1
:020525000004d0
:020526000004cf
:020527000004ce
:020528000004cd
:020529000004cc
:02052a000004cb
:02052b000004ca
:02052c000004c9
:02052d000004c8
:02052e000004c7
:02052f000004c6
:020530000004c5
:020531000004c4
:020532000004c3
:020533000004c2
:020534000004c1
:020535000004c0
:020536000004bf
:020537000004be
:020538000004bd
:020539000004bc
:02053a000004bb
:02053b000004ba
:02053c000004b9
:02053d000004b8
:02053e000004b7
:02053f000004b6
:020540000004b5
:020541000004b4
:020542000004b3
:020543000004b2
:020544000004b1
:020545000004b0
:020546000004af
:020547000004ae
:020548000004ad
:020549000004ac
:02054a000004ab
:02054b000004aa
:02054c000004a9
:02054d000004a8
:02054e000004a7
:02054f000004a6
:020550000004a5
:020551000004a4
:020552000004a3
:020553000004a2
:020554000004a1
:020555000004a0
:0205560000049f
:0205570000049e
:0205580000049d
:0205590000049c
:02055a0000049b
:02055b0000049a
:02055c00000499
:02055d00000498
:02055e00000497
:02055f00000496
:02056000000495
:02056100000494
:02056200000493
:02056300000492
:02056400000491
:02056500000490
:0205660000048f
:0205670000048e
:0205680000048d
:0205690000048c
:02056a0000048b
:02056b0000048a
:02056c00000489
:02056d00000488
:02056e00000487
:02056f00000486
:02057000000485
:02057100000484
:02057200000483
:02057300000482
:02057400000481
:02057500000480
:0205760000047f
:0205770000047e
:0205780000047d
:0205790000047c
:02057a0000047b
:02057b0000047a
:02057c00000479
:02057d00000478
:02057e00000477
:02057f00000476
:02058000000475
:02058100000474
:02058200000473
:02058300000472
:02058400000471
:02058500000470
:0205860000046f
:0205870000046e
:0205880000046d
:0205890000046c
:02058a0000046b
:02058b0000046a
:02058c00000469
:02058d00000468
:02058e00000467
:02058f00000466
:02059000000465
:02059100000464
:02059200000463
:02059300000462
:02059400000461
:02059500000460
:0205960000045f
:0205970000045e
:0205980000045d
:0205990000045c
:02059a0000045b
:02059b0000045a
:02059c00000459
:02059d00000458
:02059e00000457
:02059f00000456
:0205a000000455
:0205a100000454
:0205a200000453
:0205a300000452
:0205a400000451
:0205a500000450
:0205a60000044f
:0205a70000044e
:0205a80000044d
:0205a90000044c
:0205aa0000044b
:0205ab0000044a
:0205ac00000449
:0205ad00000448
:0205ae00000447
:0205af00000446
:0205b000000445
:0205b100000444
:0205b200000443
:0205b300000442
:0205b400000441
:0205b500000440
:0205b60000043f
:0205b70000043e
:0205b80000043d
:0205b90000043c
:0205ba0000043b
:0205bb0000043a
:0205bc00000439
:0205bd00000438
:0205be00000536
:0205bf00000535
:0205c000000534
:0205c100000533
:0205c200000532
:0205c300000531
:0205c400000530
:0205c50000052f
:0205c60000052e
:0205c70000052d
:0205c80000052c
:0205c90000052b
:0205ca0000052a
:0205cb00000529
:0205cc00000528
:0205cd00000527
:0205ce00000526
:0205cf00000525
:0205d000000524
:0205d100000523
:0205d200000522
:0205d300000521
:0205d400000520
:0205d50000051f
:0205d60000051e
:0205d70000051d
:0205d80000051c
:0205d90000051b
:0205da0000051a
:0205db00000519
:0205dc00000518
:0205dd00000517
:0205de00000516
:0205df00000515
:0205e000000514
:0205e100000513
:0205e200000512
:0205e300000511
:0205e400000510
:0205e50000050f
:0205e60000050e
:0205e70000050d
:0205e80000050c
:0205e90000050b
:0205ea0000050a
:0205eb00000509
:0205ec00000508
:0205ed00000507
:0205ee00000506
:0205ef00000505
:0205f000000504
:0205f100000503
:0205f200000502
:0205f300000501
:0205f400000500
:0205f5000005ff
:0205f6000005fe
:0205f7000005fd
:0205f8000005fc
:0205f9000005fb
:0205fa000005fa
:0205fb000005f9
:0205fc000005f8
:0205fd000005f7
:0205fe000005f6
:0205ff000005f5
:020600000005f3
:020601000005f2
:020602000005f1
:020603000005f0
:020604000005ef
:020605000005ee
:020606000005ed
:020607000005ec
:020608000005eb
:020609000005ea
:02060a000005e9
:02060b000005e8
:02060c000005e7
:02060d000005e6
:02060e000005e5
:02060f000005e4
:020610000005e3
:020611000005e2
:020612000005e1
:020613000005e0
:020614000005df
:020615000005de
:020616000005dd
:020617000005dc
:020618000005db
:020619000005da
:02061a000005d9
:02061b000005d8
:02061c000005d7
:02061d000005d6
:02061e000005d5
:02061f000005d4
:020620000005d3
:020621000005d2
:020622000005d1
:020623000005d0
:020624000005cf
:020625000005ce
:020626000005cd
:020627000005cc
:020628000005cb
:020629000005ca
:02062a000005c9
:02062b000005c8
:02062c000005c7
:02062d000005c6
:02062e000005c5
:02062f000005c4
:020630000005c3
:020631000005c2
:020632000005c1
:020633000005c0
:020634000005bf
:020635000005be
:020636000005bd
:020637000005bc
:020638000005bb
:020639000005ba
:02063a000005b9
:02063b000005b8
:02063c000005b7
:02063d000005b6
:02063e000005b5
:02063f000005b4
:020640000005b3
:020641000005b2
:020642000005b1
:020643000005b0
:020644000005af
:020645000005ae
:020646000005ad
:020647000005ac
:020648000005ab
:020649000005aa
:02064a000005a9
:02064b000005a8
:02064c000005a7
:02064d000005a6
:02064e000005a5
:02064f000005a4
:020650000005a3
:020651000005a2
:020652000005a1
:020653000005a0
:0206540000059f
:0206550000059e
:0206560000059d
:0206570000059c
:0206580000059b
:0206590000059a
:02065a00000599
:02065b00000598
:02065c00000597
:02065d00000596
:02065e00000595
:02065f00000594
:02066000000593
:02066100000592
:02066200000591
:02066300000590
:0206640000058f
:0206650000058e
:0206660000058d
:0206670000058c
:0206680000058b
:0206690000058a
:02066a00000589
:02066b00000588
:02066c00000587
:02066d00000586
:02066e00000585
:02066f00000584
:02067000000583
:02067100000582
:02067200000581
:02067300000580
:0206740000057f
:0206750000057e
:0206760000057d
:0206770000057c
:0206780000057b
:0206790000057a
:02067a00000579
:02067b00000578
:02067c00000577
:02067d00000576
:02067e00000575
:02067f00000574
:02068000000573
:02068100000572
:02068200000571
:02068300000570
:0206840000056f
:0206850000056e
:0206860000056d
:0206870000056c
:0206880000056b
:0206890000056a
:02068a00000569
:02068b00000568
:02068c00000567
:02068d00000566
:02068e00000565
:02068f00000564
:02069000000563
:02069100000562
:02069200000561
:02069300000560
:0206940000055f
:0206950000055e
:0206960000055d
:0206970000055c
:0206980000055b
:0206990000055a
:02069a00000559
:02069b00000558
:02069c00000557
:02069d00000556
:02069e00000555
:02069f00000554
:0206a000000553
:0206a100000552
:0206a200000551
:0206a300000550
:0206a40000054f
:0206a50000054e
:0206a60000054d
:0206a70000054c
:0206a80000054b
:0206a90000054a
:0206aa00000549
:0206ab00000548
:0206ac00000547
:0206ad00000546
:0206ae00000545
:0206af00000544
:0206b000000543
:0206b100000542
:0206b200000541
:0206b300000540
:0206b40000053f
:0206b50000053e
:0206b60000053d
:0206b70000053c
:0206b80000053b
:0206b90000053a
:0206ba00000539
:0206bb00000538
:0206bc00000537
:0206bd00000536
:0206be00000535
:0206bf00000534
:0206c000000533
:0206c100000532
:0206c200000531
:0206c300000530
:0206c40000052f
:0206c50000052e
:0206c60000052d
:0206c70000052c
:0206c80000052b
:0206c90000052a
:0206ca00000529
:0206cb00000528
:0206cc00000527
:0206cd00000526
:0206ce00000525
:0206cf00000524
:0206d000000523
:0206d100000522
:0206d200000521
:0206d300000520
:0206d40000051f
:0206d50000051e
:0206d60000051d
:0206d70000051c
:0206d80000051b
:0206d90000051a
:0206da00000519
:0206db00000518
:0206dc00000517
:0206dd00000516
:0206de00000515
:0206df00000514
:0206e000000513
:0206e100000512
:0206e200000511
:0206e300000510
:0206e40000050f
:0206e50000050e
:0206e60000050d
:0206e70000050c
:0206e80000050b
:0206e90000050a
:0206ea00000509
:0206eb00000508
:0206ec00000507
:0206ed00000506
:0206ee00000505
:0206ef00000504
:0206f000000503
:0206f100000502
:0206f200000501
:0206f300000500
:0206f4000005ff
:0206f5000005fe
:0206f6000005fd
:0206f7000005fc
:0206f8000005fb
:0206f9000005fa
:0206fa000005f9
:0206fb000005f8
:0206fc000005f7
:0206fd000005f6
:0206fe000005f5
:0206ff000005f4
:020700000005f2
:020701000005f1
:020702000005f0
:020703000005ef
:020704000005ee
:020705000006ec
:020706000006eb
:020707000006ea
:020708000006e9
:020709000006e8
:02070a000006e7
:02070b000006e6
:02070c000006e5
:02070d000006e4
:02070e000006e3
:02070f000006e2
:020710000006e1
:020711000006e0
:020712000006df
:020713000006de
:020714000006dd
:020715000006dc
:020716000006db
:020717000006da
:020718000006d9
:020719000006d8
:02071a000006d7
:02071b000006d6
:02071c000006d5
:02071d000006d4
:02071e000006d3
:02071f000006d2
:020720000006d1
:020721000006d0
:020722000006cf
:020723000006ce
:020724000006cd
:020725000006cc
:020726000006cb
:020727000006ca
:020728000006c9
:020729000006c8
:02072a000006c7
:02072b000006c6
:02072c000006c5
:02072d000006c4
:02072e000006c3
:02072f000006c2
:020730000006c1
:020731000006c0
:020732000006bf
:020733000006be
:020734000006bd
:020735000006bc
:020736000006bb
:020737000006ba
:020738000006b9
:020739000006b8
:02073a000006b7
:02073b000006b6
:02073c000006b5
:02073d000006b4
:02073e000006b3
:02073f000006b2
:020740000006b1
:020741000006b0
:020742000006af
:020743000006ae
:020744000006ad
:020745000006ac
:020746000006ab
:020747000006aa
:020748000006a9
:020749000006a8
:02074a000006a7
:02074b000006a6
:02074c000006a5
:02074d000006a4
:02074e000006a3
:02074f000006a2
:020750000006a1
:020751000006a0
:0207520000069f
:0207530000069e
:0207540000069d
:0207550000069c
:0207560000069b
:0207570000069a
:02075800000699
:02075900000698
:02075a00000697
:02075b00000696
:02075c00000695
:02075d00000694
:02075e00000693
:02075f00000692
:02076000000691
:02076100000690
:0207620000068f
:0207630000068e
:0207640000068d
:0207650000068c
:0207660000068b
:0207670000068a
:02076800000689
:02076900000688
:02076a00000687
:02076b00000686
:02076c00000685
:02076d00000684
:02076e00000683
:02076f00000682
:02077000000681
:02077100000680
:0207720000067f
:0207730000067e
:0207740000067d
:0207750000067c
:0207760000067b
:0207770000067a
:02077800000679
:02077900000678
:02077a00000677
:02077b00000676
:02077c00000675
:02077d00000674
:02077e00000673
:02077f00000672
:02078000000671
:02078100000670
:0207820000066f
:0207830000066e
:0207840000066d
:0207850000066c
:0207860000066b
:0207870000066a
:02078800000669
:02078900000668
:02078a00000667
:02078b00000666
:02078c00000665
:02078d00000664
:02078e00000663
:02078f00000662
:02079000000661
:02079100000660
:0207920000065f
:0207930000065e
:0207940000065d
:0207950000065c
:0207960000065b
:0207970000065a
:02079800000659
:02079900000658
:02079a00000657
:02079b00000656
:02079c00000655
:02079d00000654
:02079e00000653
:02079f00000652
:0207a000000651
:0207a100000650
:0207a20000064f
:0207a30000064e
:0207a40000064d
:0207a50000064c
:0207a60000064b
:0207a70000064a
:0207a800000649
:0207a900000648
:0207aa00000647
:0207ab00000646
:0207ac00000645
:0207ad00000644
:0207ae00000643
:0207af00000642
:0207b000000641
:0207b100000640
:0207b20000063f
:0207b30000063e
:0207b40000063d
:0207b50000063c
:0207b60000063b
:0207b70000063a
:0207b800000639
:0207b900000638
:0207ba00000637
:0207bb00000636
:0207bc00000635
:0207bd00000634
:0207be00000633
:0207bf00000632
:0207c000000631
:0207c100000630
:0207c20000062f
:0207c30000062e
:0207c40000062d
:0207c50000062c
:0207c60000062b
:0207c70000062a
:0207c800000629
:0207c900000628
:0207ca00000627
:0207cb00000626
:0207cc00000625
:0207cd00000624
:0207ce00000623
:0207cf00000622
:0207d000000621
:0207d100000620
:0207d20000061f
:0207d30000061e
:0207d40000061d
:0207d50000061c
:0207d60000061b
:0207d70000061a
:0207d800000619
:0207d900000618
:0207da00000617
:0207db00000616
:0207dc00000615
:0207dd00000614
:0207de00000613
:0207df00000612
:0207e000000611
:0207e100000610
:0207e20000060f
:0207e30000060e
:0207e40000060d
:0207e50000060c
:0207e60000060b
:0207e70000060a
:0207e800000609
:0207e900000608
:0207ea00000607
:0207eb00000606
:0207ec00000605
:0207ed00000604
:0207ee00000603
:0207ef00000602
:0207f000000601
:0207f100000600
:0207f2000006ff
:0207f3000006fe
:0207f4000006fd
:0207f5000006fc
:0207f6000006fb
:0207f7000006fa
:0207f8000006f9
:0207f9000006f8
:0207fa000006f7
:0207fb000006f6
:0207fc000006f5
:0207fd000006f4
:0207fe000006f3
:0207ff000006f2
:020800000006f0
:020801000006ef
:020802000006ee
:020803000006ed
:020804000006ec
:020805000006eb
:020806000006ea
:020807000006e9
:020808000006e8
:020809000006e7
:02080a000006e6
:02080b000006e5
:02080c000006e4
:02080d000006e3
:02080e000006e2
:02080f000006e1
:020810000006e0
:020811000006df
:020812000006de
:020813000006dd
:020814000006dc
:020815000006db
:020816000006da
:020817000006d9
:020818000006d8
:020819000006d7
:02081a000006d6
:02081b000006d5
:02081c000006d4
:02081d000006d3
:02081e000006d2
:02081f000006d1
:020820000006d0
:020821000006cf
:020822000006ce
:020823000006cd
:020824000006cc
:020825000006cb
:020826000006ca
:020827000006c9
:020828000006c8
:020829000006c7
:02082a000006c6
:02082b000006c5
:02082c000006c4
:02082d000006c3
:02082e000006c2
:02082f000006c1
:020830000006c0
:020831000006bf
:020832000006be
:020833000006bd
:020834000006bc
:020835000006bb
:020836000006ba
:020837000006b9
:020838000006b8
:020839000006b7
:02083a000006b6
:02083b000006b5
:02083c000006b4
:02083d000006b3
:02083e000006b2
:02083f000006b1
:020840000006b0
:020841000006af
:020842000006ae
:020843000006ad
:020844000006ac
:020845000006ab
:020846000006aa
:020847000006a9
:020848000006a8
:020849000006a7
:02084a000006a6
:02084b000007a4
:02084c000007a3
:02084d000007a2
:02084e000007a1
:02084f000007a0
:0208500000079f
:0208510000079e
:0208520000079d
:0208530000079c
:0208540000079b
:0208550000079a
:02085600000799
:02085700000798
:02085800000797
:02085900000796
:02085a00000795
:02085b00000794
:02085c00000793
:02085d00000792
:02085e00000791
:02085f00000790
:0208600000078f
:0208610000078e
:0208620000078d
:0208630000078c
:0208640000078b
:0208650000078a
:02086600000789
:02086700000788
:02086800000787
:02086900000786
:02086a00000785
:02086b00000784
:02086c00000783
:02086d00000782
:02086e00000781
:02086f00000780
:0208700000077f
:0208710000077e
:0208720000077d
:0208730000077c
:0208740000077b
:0208750000077a
:02087600000779
:02087700000778
:02087800000777
:02087900000776
:02087a00000775
:02087b00000774
:02087c00000773
:02087d00000772
:02087e00000771
:02087f00000770
:0208800000076f
:0208810000076e
:0208820000076d
:0208830000076c
:0208840000076b
:0208850000076a
:02088600000769
:02088700000768
:02088800000767
:02088900000766
:02088a00000765
:02088b00000764
:02088c00000763
:02088d00000762
:02088e00000761
:02088f00000760
:0208900000075f
:0208910000075e
:0208920000075d
:0208930000075c
:0208940000075b
:0208950000075a
:02089600000759
:02089700000758
:02089800000757
:02089900000756
:02089a00000755
:02089b00000754
:02089c00000753
:02089d00000752
:02089e00000751
:02089f00000750
:0208a00000074f
:0208a10000074e
:0208a20000074d
:0208a30000074c
:0208a40000074b
:0208a50000074a
:0208a600000749
:0208a700000748
:0208a800000747
:0208a900000746
:0208aa00000745
:0208ab00000744
:0208ac00000743
:0208ad00000742
:0208ae00000741
:0208af00000740
:0208b00000073f
:0208b10000073e
:0208b20000073d
:0208b30000073c
:0208b40000073b
:0208b50000073a
:0208b600000739
:0208b700000738
:0208b800000737
:0208b900000736
:0208ba00000735
:0208bb00000734
:0208bc00000733
:0208bd00000732
:0208be00000731
:0208bf00000730
:0208c00000072f
:0208c10000072e
:0208c20000072d
:0208c30000072c
:0208c40000072b
:0208c50000072a
:0208c600000729
:0208c700000728
:0208c800000727
:0208c900000726
:0208ca00000725
:0208cb00000724
:0208cc00000723
:0208cd00000722
:0208ce00000721
:0208cf00000720
:0208d00000071f
:0208d10000071e
:0208d20000071d
:0208d30000071c
:0208d40000071b
:0208d50000071a
:0208d600000719
:0208d700000718
:0208d800000717
:0208d900000716
:0208da00000715
:0208db00000714
:0208dc00000713
:0208dd00000712
:0208de00000711
:0208df00000710
:0208e00000070f
:0208e10000070e
:0208e20000070d
:0208e30000070c
:0208e40000070b
:0208e50000070a
:0208e600000709
:0208e700000708
:0208e800000707
:0208e900000706
:0208ea00000705
:0208eb00000704
:0208ec00000703
:0208ed00000702
:0208ee00000701
:0208ef00000700
:0208f0000007ff
:0208f1000007fe
:0208f2000007fd
:0208f3000007fc
:0208f4000007fb
:0208f5000007fa
:0208f6000007f9
:0208f7000007f8
:0208f8000007f7
:0208f9000007f6
:0208fa000007f5
:0208fb000007f4
:0208fc000007f3
:0208fd000007f2
:0208fe000007f1
:0208ff000007f0
:020900000007ee
:020901000007ed
:020902000007ec
:020903000007eb
:020904000007ea
:020905000007e9
:020906000007e8
:020907000007e7
:020908000007e6
:020909000007e5
:02090a000007e4
:02090b000007e3
:02090c000007e2
:02090d000007e1
:02090e000007e0
:02090f000007df
:020910000007de
:020911000007dd
:020912000007dc
:020913000007db
:020914000007da
:020915000007d9
:020916000007d8
:020917000007d7
:020918000007d6
:020919000007d5
:02091a000007d4
:02091b000007d3
:02091c000007d2
:02091d000007d1
:02091e000007d0
:02091f000007cf
:020920000007ce
:020921000007cd
:020922000007cc
:020923000007cb
:020924000007ca
:020925000007c9
:020926000007c8
:020927000007c7
:020928000007c6
:020929000007c5
:02092a000007c4
:02092b000007c3
:02092c000007c2
:02092d000007c1
:02092e000007c0
:02092f000007bf
:020930000007be
:020931000007bd
:020932000007bc
:020933000007bb
:020934000007ba
:020935000007b9
:020936000007b8
:020937000007b7
:020938000007b6
:020939000007b5
:02093a000007b4
:02093b000007b3
:02093c000007b2
:02093d000007b1
:02093e000007b0
:02093f000007af
:020940000007ae
:020941000007ad
:020942000007ac
:020943000007ab
:020944000007aa
:020945000007a9
:020946000007a8
:020947000007a7
:020948000007a6
:020949000007a5
:02094a000007a4
:02094b000007a3
:02094c000007a2
:02094d000007a1
:02094e000007a0
:02094f0000079f
:0209500000079e
:0209510000079d
:0209520000079c
:0209530000079b
:0209540000079a
:02095500000799
:02095600000798
:02095700000797
:02095800000796
:02095900000795
:02095a00000794
:02095b00000793
:02095c00000792
:02095d00000791
:02095e00000790
:02095f0000078f
:0209600000078e
:0209610000078d
:0209620000078c
:0209630000078b
:0209640000078a
:02096500000789
:02096600000788
:02096700000787
:02096800000786
:02096900000785
:02096a00000784
:02096b00000783
:02096c00000782
:02096d00000781
:02096e00000780
:02096f0000077f
:0209700000077e
:0209710000077d
:0209720000077c
:0209730000077b
:0209740000077a
:02097500000779
:02097600000778
:02097700000777
:02097800000776
:02097900000775
:02097a00000774
:02097b00000773
:02097c00000772
:02097d00000771
:02097e00000770
:02097f0000076f
:0209800000076e
:0209810000076d
:0209820000076c
:0209830000076b
:0209840000076a
:02098500000769
:02098600000768
:02098700000767
:02098800000766
:02098900000765
:02098a00000764
:02098b00000763
:02098c00000762
:02098d00000761
:02098e00000760
:02098f0000075f
:0209900000075e
:0209910000075d
:0209920000085b
:0209930000085a
:02099400000859
:02099500000858
:02099600000857
:02099700000856
:02099800000855
:02099900000854
:02099a00000853
:02099b00000852
:02099c00000851
:02099d00000850
:02099e0000084f
:02099f0000084e
:0209a00000084d
:0209a10000084c
:0209a20000084b
:0209a30000084a
:0209a400000849
:0209a500000848
:0209a600000847
:0209a700000846
:0209a800000845
:0209a900000844
:0209aa00000843
:0209ab00000842
:0209ac00000841
:0209ad00000840
:0209ae0000083f
:0209af0000083e
:0209b00000083d
:0209b10000083c
:0209b20000083b
:0209b30000083a
:0209b400000839
:0209b500000838
:0209b600000837
:0209b700000836
:0209b800000835
:0209b900000834
:0209ba00000833
:0209bb00000832
:0209bc00000831
:0209bd00000830
:0209be0000082f
:0209bf0000082e
:0209c00000082d
:0209c10000082c
:0209c20000082b
:0209c30000082a
:0209c400000829
:0209c500000828
:0209c600000827
:0209c700000826
:0209c800000825
:0209c900000824
:0209ca00000823
:0209cb00000822
:0209cc00000821
:0209cd00000820
:0209ce0000081f
:0209cf0000081e
:0209d00000081d
:0209d10000081c
:0209d20000081b
:0209d30000081a
:0209d400000819
:0209d500000818
:0209d600000817
:0209d700000816
:0209d800000815
:0209d900000814
:0209da00000813
:0209db00000812
:0209dc00000811
:0209dd00000810
:0209de0000080f
:0209df0000080e
:0209e00000080d
:0209e10000080c
:0209e20000080b
:0209e30000080a
:0209e400000809
:0209e500000808
:0209e600000807
:0209e700000806
:0209e800000805
:0209e900000804
:0209ea00000803
:0209eb00000802
:0209ec00000801
:0209ed00000800
:0209ee000008ff
:0209ef000008fe
:0209f0000008fd
:0209f1000008fc
:0209f2000008fb
:0209f3000008fa
:0209f4000008f9
:0209f5000008f8
:0209f6000008f7
:0209f7000008f6
:0209f8000008f5
:0209f9000008f4
:0209fa000008f3
:0209fb000008f2
:0209fc000008f1
:0209fd000008f0
:0209fe000008ef
:0209ff000008ee
:020a00000008ec
:020a01000008eb
:020a02000008ea
:020a03000008e9
:020a04000008e8
:020a05000008e7
:020a06000008e6
:020a07000008e5
:020a08000008e4
:020a09000008e3
:020a0a000008e2
:020a0b000008e1
:020a0c000008e0
:020a0d000008df
:020a0e000008de
:020a0f000008dd
:020a10000008dc
:020a11000008db
:020a12000008da
:020a13000008d9
:020a14000008d8
:020a15000008d7
:020a16000008d6
:020a17000008d5
:020a18000008d4
:020a19000008d3
:020a1a000008d2
:020a1b000008d1
:020a1c000008d0
:020a1d000008cf
:020a1e000008ce
:020a1f000008cd
:020a20000008cc
:020a21000008cb
:020a22000008ca
:020a23000008c9
:020a24000008c8
:020a25000008c7
:020a26000008c6
:020a27000008c5
:020a28000008c4
:020a29000008c3
:020a2a000008c2
:020a2b000008c1
:020a2c000008c0
:020a2d000008bf
:020a2e000008be
:020a2f000008bd
:020a30000008bc
:020a31000008bb
:020a32000008ba
:020a33000008b9
:020a34000008b8
:020a35000008b7
:020a36000008b6
:020a37000008b5
:020a38000008b4
:020a39000008b3
:020a3a000008b2
:020a3b000008b1
:020a3c000008b0
:020a3d000008af
:020a3e000008ae
:020a3f000008ad
:020a40000008ac
:020a41000008ab
:020a42000008aa
:020a43000008a9
:020a44000008a8
:020a45000008a7
:020a46000008a6
:020a47000008a5
:020a48000008a4
:020a49000008a3
:020a4a000008a2
:020a4b000008a1
:020a4c000008a0
:020a4d0000089f
:020a4e0000089e
:020a4f0000089d
:020a500000089c
:020a510000089b
:020a520000089a
:020a5300000899
:020a5400000898
:020a5500000897
:020a5600000896
:020a5700000895
:020a5800000894
:020a5900000893
:020a5a00000892
:020a5b00000891
:020a5c00000890
:020a5d0000088f
:020a5e0000088e
:020a5f0000088d
:020a600000088c
:020a610000088b
:020a620000088a
:020a6300000889
:020a6400000888
:020a6500000887
:020a6600000886
:020a6700000885
:020a6800000884
:020a6900000883
:020a6a00000882
:020a6b00000881
:020a6c00000880
:020a6d0000087f
:020a6e0000087e
:020a6f0000087d
:020a700000087c
:020a710000087b
:020a720000087a
:020a7300000879
:020a7400000878
:020a7500000877
:020a7600000876
:020a7700000875
:020a7800000874
:020a7900000873
:020a7a00000872
:020a7b00000871
:020a7c00000870
:020a7d0000086f
:020a7e0000086e
:020a7f0000086d
:020a800000086c
:020a810000086b
:020a820000086a
:020a8300000869
:020a8400000868
:020a8500000867
:020a8600000866
:020a8700000865
:020a8800000864
:020a8900000863
:020a8a00000862
:020a8b00000861
:020a8c00000860
:020a8d0000085f
:020a8e0000085e
:020a8f0000085d
:020a900000085c
:020a910000085b
:020a920000085a
:020a9300000859
:020a9400000858
:020a9500000857
:020a9600000856
:020a9700000855
:020a9800000854
:020a9900000853
:020a9a00000852
:020a9b00000851
:020a9c00000850
:020a9d0000084f
:020a9e0000084e
:020a9f0000084d
:020aa00000084c
:020aa10000084b
:020aa20000084a
:020aa300000849
:020aa400000848
:020aa500000847
:020aa600000846
:020aa700000845
:020aa800000844
:020aa900000843
:020aaa00000842
:020aab00000841
:020aac00000840
:020aad0000083f
:020aae0000083e
:020aaf0000083d
:020ab00000083c
:020ab10000083b
:020ab20000083a
:020ab300000839
:020ab400000838
:020ab500000837
:020ab600000836
:020ab700000835
:020ab800000834
:020ab900000833
:020aba00000832
:020abb00000831
:020abc00000830
:020abd0000082f
:020abe0000082e
:020abf0000082d
:020ac00000082c
:020ac10000082b
:020ac20000082a
:020ac300000829
:020ac400000828
:020ac500000827
:020ac600000826
:020ac700000825
:020ac800000824
:020ac900000823
:020aca00000822
:020acb00000821
:020acc00000820
:020acd0000081f
:020ace0000081e
:020acf0000081d
:020ad00000081c
:020ad10000081b
:020ad20000081a
:020ad300000819
:020ad400000818
:020ad500000817
:020ad600000816
:020ad700000815
:020ad800000814
:020ad900000912
:020ada00000911
:020adb00000910
:020adc0000090f
:020add0000090e
:020ade0000090d
:020adf0000090c
:020ae00000090b
:020ae10000090a
:020ae200000909
:020ae300000908
:020ae400000907
:020ae500000906
:020ae600000905
:020ae700000904
:020ae800000903
:020ae900000902
:020aea00000901
:020aeb00000900
:020aec000009ff
:020aed000009fe
:020aee000009fd
:020aef000009fc
:020af0000009fb
:020af1000009fa
:020af2000009f9
:020af3000009f8
:020af4000009f7
:020af5000009f6
:020af6000009f5
:020af7000009f4
:020af8000009f3
:020af9000009f2
:020afa000009f1
:020afb000009f0
:020afc000009ef
:020afd000009ee
:020afe000009ed
:020aff000009ec
:020b00000009ea
:020b01000009e9
:020b02000009e8
:020b03000009e7
:020b04000009e6
:020b05000009e5
:020b06000009e4
:020b07000009e3
:020b08000009e2
:020b09000009e1
:020b0a000009e0
:020b0b000009df
:020b0c000009de
:020b0d000009dd
:020b0e000009dc
:020b0f000009db
:020b10000009da
:020b11000009d9
:020b12000009d8
:020b13000009d7
:020b14000009d6
:020b15000009d5
:020b16000009d4
:020b17000009d3
:020b18000009d2
:020b19000009d1
:020b1a000009d0
:020b1b000009cf
:020b1c000009ce
:020b1d000009cd
:020b1e000009cc
:020b1f000009cb
:020b20000009ca
:020b21000009c9
:020b22000009c8
:020b23000009c7
:020b24000009c6
:020b25000009c5
:020b26000009c4
:020b27000009c3
:020b28000009c2
:020b29000009c1
:020b2a000009c0
:020b2b000009bf
:020b2c000009be
:020b2d000009bd
:020b2e000009bc
:020b2f000009bb
:020b30000009ba
:020b31000009b9
:020b32000009b8
:020b33000009b7
:020b34000009b6
:020b35000009b5
:020b36000009b4
:020b37000009b3
:020b38000009b2
:020b39000009b1
:020b3a000009b0
:020b3b000009af
:020b3c000009ae
:020b3d000009ad
:020b3e000009ac
:020b3f000009ab
:020b40000009aa
:020b41000009a9
:020b42000009a8
:020b43000009a7
:020b44000009a6
:020b45000009a5
:020b46000009a4
:020b47000009a3
:020b48000009a2
:020b49000009a1
:020b4a000009a0
:020b4b0000099f
:020b4c0000099e
:020b4d0000099d
:020b4e0000099c
:020b4f0000099b
:020b500000099a
:020b5100000999
:020b5200000998
:020b5300000997
:020b5400000996
:020b5500000995
:020b5600000994
:020b5700000993
:020b5800000992
:020b5900000991
:020b5a00000990
:020b5b0000098f
:020b5c0000098e
:020b5d0000098d
:020b5e0000098c
:020b5f0000098b
:020b600000098a
:020b6100000989
:020b6200000988
:020b6300000987
:020b6400000986
:020b6500000985
:020b6600000984
:020b6700000983
:020b6800000982
:020b6900000981
:020b6a00000980
:020b6b0000097f
:020b6c0000097e
:020b6d0000097d
:020b6e0000097c
:020b6f0000097b
:020b700000097a
:020b7100000979
:020b7200000978
:020b7300000977
:020b7400000976
:020b7500000975
:020b7600000974
:020b7700000973
:020b7800000972
:020b7900000971
:020b7a00000970
:020b7b0000096f
:020b7c0000096e
:020b7d0000096d
:020b7e0000096c
:020b7f0000096b
:020b800000096a
:020b8100000969
:020b8200000968
:020b8300000967
:020b8400000966
:020b8500000965
:020b8600000964
:020b8700000963
:020b8800000962
:020b8900000961
:020b8a00000960
:020b8b0000095f
:020b8c0000095e
:020b8d0000095d
:020b8e0000095c
:020b8f0000095b
:020b900000095a
:020b9100000959
:020b9200000958
:020b9300000957
:020b9400000956
:020b9500000955
:020b9600000954
:020b9700000953
:020b9800000952
:020b9900000951
:020b9a00000950
:020b9b0000094f
:020b9c0000094e
:020b9d0000094d
:020b9e0000094c
:020b9f0000094b
:020ba00000094a
:020ba100000949
:020ba200000948
:020ba300000947
:020ba400000946
:020ba500000945
:020ba600000944
:020ba700000943
:020ba800000942
:020ba900000941
:020baa00000940
:020bab0000093f
:020bac0000093e
:020bad0000093d
:020bae0000093c
:020baf0000093b
:020bb00000093a
:020bb100000939
:020bb200000938
:020bb300000937
:020bb400000936
:020bb500000935
:020bb600000934
:020bb700000933
:020bb800000932
:020bb900000931
:020bba00000930
:020bbb0000092f
:020bbc0000092e
:020bbd0000092d
:020bbe0000092c
:020bbf0000092b
:020bc00000092a
:020bc100000929
:020bc200000928
:020bc300000927
:020bc400000926
:020bc500000925
:020bc600000924
:020bc700000923
:020bc800000922
:020bc900000921
:020bca00000920
:020bcb0000091f
:020bcc0000091e
:020bcd0000091d
:020bce0000091c
:020bcf0000091b
:020bd00000091a
:020bd100000919
:020bd200000918
:020bd300000917
:020bd400000916
:020bd500000915
:020bd600000914
:020bd700000913
:020bd800000912
:020bd900000911
:020bda00000910
:020bdb0000090f
:020bdc0000090e
:020bdd0000090d
:020bde0000090c
:020bdf0000090b
:020be00000090a
:020be100000909
:020be200000908
:020be300000907
:020be400000906
:020be500000905
:020be600000904
:020be700000903
:020be800000902
:020be900000901
:020bea00000900
:020beb000009ff
:020bec000009fe
:020bed000009fd
:020bee000009fc
:020bef000009fb
:020bf0000009fa
:020bf1000009f9
:020bf2000009f8
:020bf3000009f7
:020bf4000009f6
:020bf5000009f5
:020bf6000009f4
:020bf7000009f3
:020bf8000009f2
:020bf9000009f1
:020bfa000009f0
:020bfb000009ef
:020bfc000009ee
:020bfd000009ed
:020bfe000009ec
:020bff000009eb
:020c00000009e9
:020c01000009e8
:020c02000009e7
:020c03000009e6
:020c04000009e5
:020c05000009e4
:020c06000009e3
:020c07000009e2
:020c08000009e1
:020c09000009e0
:020c0a000009df
:020c0b000009de
:020c0c000009dd
:020c0d000009dc
:020c0e000009db
:020c0f000009da
:020c10000009d9
:020c11000009d8
:020c12000009d7
:020c13000009d6
:020c14000009d5
:020c15000009d4
:020c16000009d3
:020c17000009d2
:020c18000009d1
:020c19000009d0
:020c1a000009cf
:020c1b000009ce
:020c1c000009cd
:020c1d000009cc
:020c1e000009cb
:020c1f00000ac9
:020c2000000ac8
:020c2100000ac7
:020c2200000ac6
:020c2300000ac5
:020c2400000ac4
:020c2500000ac3
:020c2600000ac2
:020c2700000ac1
:020c2800000ac0
:020c2900000abf
:020c2a00000abe
:020c2b00000abd
:020c2c00000abc
:020c2d00000abb
:020c2e00000aba
:020c2f00000ab9
:020c3000000ab8
:020c3100000ab7
:020c3200000ab6
:020c3300000ab5
:020c3400000ab4
:020c3500000ab3
:020c3600000ab2
:020c3700000ab1
:020c3800000ab0
:020c3900000aaf
:020c3a00000aae
:020c3b00000aad
:020c3c00000aac
:020c3d00000aab
:020c3e00000aaa
:020c3f00000aa9
:020c4000000aa8
:020c4100000aa7
:020c4200000aa6
:020c4300000aa5
:020c4400000aa4
:020c4500000aa3
:020c4600000aa2
:020c4700000aa1
:020c4800000aa0
:020c4900000a9f
:020c4a00000a9e
:020c4b00000a9d
:020c4c00000a9c
:020c4d00000a9b
:020c4e00000a9a
:020c4f00000a99
:020c5000000a98
:020c5100000a97
:020c5200000a96
:020c5300000a95
:020c5400000a94
:020c5500000a93
:020c5600000a92
:020c5700000a91
:020c5800000a90
:020c5900000a8f
:020c5a00000a8e
:020c5b00000a8d
:020c5c00000a8c
:020c5d00000a8b
:020c5e00000a8a
:020c5f00000a89
:020c6000000a88
:020c6100000a87
:020c6200000a86
:020c6300000a85
:020c6400000a84
:020c6500000a83
:020c6600000a82
:020c6700000a81
:020c6800000a80
:020c6900000a7f
:020c6a00000a7e
:020c6b00000a7d
:020c6c00000a7c
:020c6d00000a7b
:020c6e00000a7a
:020c6f00000a79
:020c7000000a78
:020c7100000a77
:020c7200000a76
:020c7300000a75
:020c7400000a74
:020c7500000a73
:020c7600000a72
:020c7700000a71
:020c7800000a70
:020c7900000a6f
:020c7a00000a6e
:020c7b00000a6d
:020c7c00000a6c
:020c7d00000a6b
:020c7e00000a6a
:020c7f00000a69
:020c8000000a68
:020c8100000a67
:020c8200000a66
:020c8300000a65
:020c8400000a64
:020c8500000a63
:020c8600000a62
:020c8700000a61
:020c8800000a60
:020c8900000a5f
:020c8a00000a5e
:020c8b00000a5d
:020c8c00000a5c
:020c8d00000a5b
:020c8e00000a5a
:020c8f00000a59
:020c9000000a58
:020c9100000a57
:020c9200000a56
:020c9300000a55
:020c9400000a54
:020c9500000a53
:020c9600000a52
:020c9700000a51
:020c9800000a50
:020c9900000a4f
:020c9a00000a4e
:020c9b00000a4d
:020c9c00000a4c
:020c9d00000a4b
:020c9e00000a4a
:020c9f00000a49
:020ca000000a48
:020ca100000a47
:020ca200000a46
:020ca300000a45
:020ca400000a44
:020ca500000a43
:020ca600000a42
:020ca700000a41
:020ca800000a40
:020ca900000a3f
:020caa00000a3e
:020cab00000a3d
:020cac00000a3c
:020cad00000a3b
:020cae00000a3a
:020caf00000a39
:020cb000000a38
:020cb100000a37
:020cb200000a36
:020cb300000a35
:020cb400000a34
:020cb500000a33
:020cb600000a32
:020cb700000a31
:020cb800000a30
:020cb900000a2f
:020cba00000a2e
:020cbb00000a2d
:020cbc00000a2c
:020cbd00000a2b
:020cbe00000a2a
:020cbf00000a29
:020cc000000a28
:020cc100000a27
:020cc200000a26
:020cc300000a25
:020cc400000a24
:020cc500000a23
:020cc600000a22
:020cc700000a21
:020cc800000a20
:020cc900000a1f
:020cca00000a1e
:020ccb00000a1d
:020ccc00000a1c
:020ccd00000a1b
:020cce00000a1a
:020ccf00000a19
:020cd000000a18
:020cd100000a17
:020cd200000a16
:020cd300000a15
:020cd400000a14
:020cd500000a13
:020cd600000a12
:020cd700000a11
:020cd800000a10
:020cd900000a0f
:020cda00000a0e
:020cdb00000a0d
:020cdc00000a0c
:020cdd00000a0b
:020cde00000a0a
:020cdf00000a09
:020ce000000a08
:020ce100000a07
:020ce200000a06
:020ce300000a05
:020ce400000a04
:020ce500000a03
:020ce600000a02
:020ce700000a01
:020ce800000a00
:020ce900000aff
:020cea00000afe
:020ceb00000afd
:020cec00000afc
:020ced00000afb
:020cee00000afa
:020cef00000af9
:020cf000000af8
:020cf100000af7
:020cf200000af6
:020cf300000af5
:020cf400000af4
:020cf500000af3
:020cf600000af2
:020cf700000af1
:020cf800000af0
:020cf900000aef
:020cfa00000aee
:020cfb00000aed
:020cfc00000aec
:020cfd00000aeb
:020cfe00000aea
:020cff00000ae9
:020d0000000ae7
:020d0100000ae6
:020d0200000ae5
:020d0300000ae4
:020d0400000ae3
:020d0500000ae2
:020d0600000ae1
:020d0700000ae0
:020d0800000adf
:020d0900000ade
:020d0a00000add
:020d0b00000adc
:020d0c00000adb
:020d0d00000ada
:020d0e00000ad9
:020d0f00000ad8
:020d1000000ad7
:020d1100000ad6
:020d1200000ad5
:020d1300000ad4
:020d1400000ad3
:020d1500000ad2
:020d1600000ad1
:020d1700000ad0
:020d1800000acf
:020d1900000ace
:020d1a00000acd
:020d1b00000acc
:020d1c00000acb
:020d1d00000aca
:020d1e00000ac9
:020d1f00000ac8
:020d2000000ac7
:020d2100000ac6
:020d2200000ac5
:020d2300000ac4
:020d2400000ac3
:020d2500000ac2
:020d2600000ac1
:020d2700000ac0
:020d2800000abf
:020d2900000abe
:020d2a00000abd
:020d2b00000abc
:020d2c00000abb
:020d2d00000aba
:020d2e00000ab9
:020d2f00000ab8
:020d3000000ab7
:020d3100000ab6
:020d3200000ab5
:020d3300000ab4
:020d3400000ab3
:020d3500000ab2
:020d3600000ab1
:020d3700000ab0
:020d3800000aaf
:020d3900000aae
:020d3a00000aad
:020d3b00000aac
:020d3c00000aab
:020d3d00000aaa
:020d3e00000aa9
:020d3f00000aa8
:020d4000000aa7
:020d4100000aa6
:020d4200000aa5
:020d4300000aa4
:020d4400000aa3
:020d4500000aa2
:020d4600000aa1
:020d4700000aa0
:020d4800000a9f
:020d4900000a9e
:020d4a00000a9d
:020d4b00000a9c
:020d4c00000a9b
:020d4d00000a9a
:020d4e00000a99
:020d4f00000a98
:020d5000000a97
:020d5100000a96
:020d5200000a95
:020d5300000a94
:020d5400000a93
:020d5500000a92
:020d5600000a91
:020d5700000a90
:020d5800000a8f
:020d5900000a8e
:020d5a00000a8d
:020d5b00000a8c
:020d5c00000a8b
:020d5d00000a8a
:020d5e00000a89
:020d5f00000a88
:020d6000000a87
:020d6100000a86
:020d6200000a85
:020d6300000a84
:020d6400000a83
:020d6500000a82
:020d6600000b80
:020d6700000b7f
:020d6800000b7e
:020d6900000b7d
:020d6a00000b7c
:020d6b00000b7b
:020d6c00000b7a
:020d6d00000b79
:020d6e00000b78
:020d6f00000b77
:020d7000000b76
:020d7100000b75
:020d7200000b74
:020d7300000b73
:020d7400000b72
:020d7500000b71
:020d7600000b70
:020d7700000b6f
:020d7800000b6e
:020d7900000b6d
:020d7a00000b6c
:020d7b00000b6b
:020d7c00000b6a
:020d7d00000b69
:020d7e00000b68
:020d7f00000b67
:020d8000000b66
:020d8100000b65
:020d8200000b64
:020d8300000b63
:020d8400000b62
:020d8500000b61
:020d8600000b60
:020d8700000b5f
:020d8800000b5e
:020d8900000b5d
:020d8a00000b5c
:020d8b00000b5b
:020d8c00000b5a
:020d8d00000b59
:020d8e00000b58
:020d8f00000b57
:020d9000000b56
:020d9100000b55
:020d9200000b54
:020d9300000b53
:020d9400000b52
:020d9500000b51
:020d9600000b50
:020d9700000b4f
:020d9800000b4e
:020d9900000b4d
:020d9a00000b4c
:020d9b00000b4b
:020d9c00000b4a
:020d9d00000b49
:020d9e00000b48
:020d9f00000b47
:020da000000b46
:020da100000b45
:020da200000b44
:020da300000b43
:020da400000b42
:020da500000b41
:020da600000b40
:020da700000b3f
:020da800000b3e
:020da900000b3d
:020daa00000b3c
:020dab00000b3b
:020dac00000b3a
:020dad00000b39
:020dae00000b38
:020daf00000b37
:020db000000b36
:020db100000b35
:020db200000b34
:020db300000b33
:020db400000b32
:020db500000b31
:020db600000b30
:020db700000b2f
:020db800000b2e
:020db900000b2d
:020dba00000b2c
:020dbb00000b2b
:020dbc00000b2a
:020dbd00000b29
:020dbe00000b28
:020dbf00000b27
:020dc000000b26
:020dc100000b25
:020dc200000b24
:020dc300000b23
:020dc400000b22
:020dc500000b21
:020dc600000b20
:020dc700000b1f
:020dc800000b1e
:020dc900000b1d
:020dca00000b1c
:020dcb00000b1b
:020dcc00000b1a
:020dcd00000b19
:020dce00000b18
:020dcf00000b17
:020dd000000b16
:020dd100000b15
:020dd200000b14
:020dd300000b13
:020dd400000b12
:020dd500000b11
:020dd600000b10
:020dd700000b0f
:020dd800000b0e
:020dd900000b0d
:020dda00000b0c
:020ddb00000b0b
:020ddc00000b0a
:020ddd00000b09
:020dde00000b08
:020ddf00000b07
:020de000000b06
:020de100000b05
:020de200000b04
:020de300000b03
:020de400000b02
:020de500000b01
:020de600000b00
:020de700000bff
:020de800000bfe
:020de900000bfd
:020dea00000bfc
:020deb00000bfb
:020dec00000bfa
:020ded00000bf9
:020dee00000bf8
:020def00000bf7
:020df000000bf6
:020df100000bf5
:020df200000bf4
:020df300000bf3
:020df400000bf2
:020df500000bf1
:020df600000bf0
:020df700000bef
:020df800000bee
:020df900000bed
:020dfa00000bec
:020dfb00000beb
:020dfc00000bea
:020dfd00000be9
:020dfe00000be8
:020dff00000be7
:020e0000000be5
:020e0100000be4
:020e0200000be3
:020e0300000be2
:020e0400000be1
:020e0500000be0
:020e0600000bdf
:020e0700000bde
:020e0800000bdd
:020e0900000bdc
:020e0a00000bdb
:020e0b00000bda
:020e0c00000bd9
:020e0d00000bd8
:020e0e00000bd7
:020e0f00000bd6
:020e1000000bd5
:020e1100000bd4
:020e1200000bd3
:020e1300000bd2
:020e1400000bd1
:020e1500000bd0
:020e1600000bcf
:020e1700000bce
:020e1800000bcd
:020e1900000bcc
:020e1a00000bcb
:020e1b00000bca
:020e1c00000bc9
:020e1d00000bc8
:020e1e00000bc7
:020e1f00000bc6
:020e2000000bc5
:020e2100000bc4
:020e2200000bc3
:020e2300000bc2
:020e2400000bc1
:020e2500000bc0
:020e2600000bbf
:020e2700000bbe
:020e2800000bbd
:020e2900000bbc
:020e2a00000bbb
:020e2b00000bba
:020e2c00000bb9
:020e2d00000bb8
:020e2e00000bb7
:020e2f00000bb6
:020e3000000bb5
:020e3100000bb4
:020e3200000bb3
:020e3300000bb2
:020e3400000bb1
:020e3500000bb0
:020e3600000baf
:020e3700000bae
:020e3800000bad
:020e3900000bac
:020e3a00000bab
:020e3b00000baa
:020e3c00000ba9
:020e3d00000ba8
:020e3e00000ba7
:020e3f00000ba6
:020e4000000ba5
:020e4100000ba4
:020e4200000ba3
:020e4300000ba2
:020e4400000ba1
:020e4500000ba0
:020e4600000b9f
:020e4700000b9e
:020e4800000b9d
:020e4900000b9c
:020e4a00000b9b
:020e4b00000b9a
:020e4c00000b99
:020e4d00000b98
:020e4e00000b97
:020e4f00000b96
:020e5000000b95
:020e5100000b94
:020e5200000b93
:020e5300000b92
:020e5400000b91
:020e5500000b90
:020e5600000b8f
:020e5700000b8e
:020e5800000b8d
:020e5900000b8c
:020e5a00000b8b
:020e5b00000b8a
:020e5c00000b89
:020e5d00000b88
:020e5e00000b87
:020e5f00000b86
:020e6000000b85
:020e6100000b84
:020e6200000b83
:020e6300000b82
:020e6400000b81
:020e6500000b80
:020e6600000b7f
:020e6700000b7e
:020e6800000b7d
:020e6900000b7c
:020e6a00000b7b
:020e6b00000b7a
:020e6c00000b79
:020e6d00000b78
:020e6e00000b77
:020e6f00000b76
:020e7000000b75
:020e7100000b74
:020e7200000b73
:020e7300000b72
:020e7400000b71
:020e7500000b70
:020e7600000b6f
:020e7700000b6e
:020e7800000b6d
:020e7900000b6c
:020e7a00000b6b
:020e7b00000b6a
:020e7c00000b69
:020e7d00000b68
:020e7e00000b67
:020e7f00000b66
:020e8000000b65
:020e8100000b64
:020e8200000b63
:020e8300000b62
:020e8400000b61
:020e8500000b60
:020e8600000b5f
:020e8700000b5e
:020e8800000b5d
:020e8900000b5c
:020e8a00000b5b
:020e8b00000b5a
:020e8c00000b59
:020e8d00000b58
:020e8e00000b57
:020e8f00000b56
:020e9000000b55
:020e9100000b54
:020e9200000b53
:020e9300000b52
:020e9400000b51
:020e9500000b50
:020e9600000b4f
:020e9700000b4e
:020e9800000b4d
:020e9900000b4c
:020e9a00000b4b
:020e9b00000b4a
:020e9c00000b49
:020e9d00000b48
:020e9e00000b47
:020e9f00000b46
:020ea000000b45
:020ea100000b44
:020ea200000b43
:020ea300000b42
:020ea400000b41
:020ea500000b40
:020ea600000b3f
:020ea700000b3e
:020ea800000b3d
:020ea900000b3c
:020eaa00000b3b
:020eab00000b3a
:020eac00000b39
:020ead00000c37
:020eae00000c36
:020eaf00000c35
:020eb000000c34
:020eb100000c33
:020eb200000c32
:020eb300000c31
:020eb400000c30
:020eb500000c2f
:020eb600000c2e
:020eb700000c2d
:020eb800000c2c
:020eb900000c2b
:020eba00000c2a
:020ebb00000c29
:020ebc00000c28
:020ebd00000c27
:020ebe00000c26
:020ebf00000c25
:020ec000000c24
:020ec100000c23
:020ec200000c22
:020ec300000c21
:020ec400000c20
:020ec500000c1f
:020ec600000c1e
:020ec700000c1d
:020ec800000c1c
:020ec900000c1b
:020eca00000c1a
:020ecb00000c19
:020ecc00000c18
:020ecd00000c17
:020ece00000c16
:020ecf00000c15
:020ed000000c14
:020ed100000c13
:020ed200000c12
:020ed300000c11
:020ed400000c10
:020ed500000c0f
:020ed600000c0e
:020ed700000c0d
:020ed800000c0c
:020ed900000c0b
:020eda00000c0a
:020edb00000c09
:020edc00000c08
:020edd00000c07
:020ede00000c06
:020edf00000c05
:020ee000000c04
:020ee100000c03
:020ee200000c02
:020ee300000c01
:020ee400000c00
:020ee500000cff
:020ee600000cfe
:020ee700000cfd
:020ee800000cfc
:020ee900000cfb
:020eea00000cfa
:020eeb00000cf9
:020eec00000cf8
:020eed00000cf7
:020eee00000cf6
:020eef00000cf5
:020ef000000cf4
:020ef100000cf3
:020ef200000cf2
:020ef300000cf1
:020ef400000cf0
:020ef500000cef
:020ef600000cee
:020ef700000ced
:020ef800000cec
:020ef900000ceb
:020efa00000cea
:020efb00000ce9
:020efc00000ce8
:020efd00000ce7
:020efe00000ce6
:020eff00000ce5
:020f0000000ce3
:020f0100000ce2
:020f0200000ce1
:020f0300000ce0
:020f0400000cdf
:020f0500000cde
:020f0600000cdd
:020f0700000cdc
:020f0800000cdb
:020f0900000cda
:020f0a00000cd9
:020f0b00000cd8
:020f0c00000cd7
:020f0d00000cd6
:020f0e00000cd5
:020f0f00000cd4
:020f1000000cd3
:020f1100000cd2
:020f1200000cd1
:020f1300000cd0
:020f1400000ccf
:020f1500000cce
:020f1600000ccd
:020f1700000ccc
:020f1800000ccb
:020f1900000cca
:020f1a00000cc9
:020f1b00000cc8
:020f1c00000cc7
:020f1d00000cc6
:020f1e00000cc5
:020f1f00000cc4
:020f2000000cc3
:020f2100000cc2
:020f2200000cc1
:020f2300000cc0
:020f2400000cbf
:020f2500000cbe
:020f2600000cbd
:020f2700000cbc
:020f2800000cbb
:020f2900000cba
:020f2a00000cb9
:020f2b00000cb8
:020f2c00000cb7
:020f2d00000cb6
:020f2e00000cb5
:020f2f00000cb4
:020f3000000cb3
:020f3100000cb2
:020f3200000cb1
:020f3300000cb0
:020f3400000caf
:020f3500000cae
:020f3600000cad
:020f3700000cac
:020f3800000cab
:020f3900000caa
:020f3a00000ca9
:020f3b00000ca8
:020f3c00000ca7
:020f3d00000ca6
:020f3e00000ca5
:020f3f00000ca4
:020f4000000ca3
:020f4100000ca2
:020f4200000ca1
:020f4300000ca0
:020f4400000c9f
:020f4500000c9e
:020f4600000c9d
:020f4700000c9c
:020f4800000c9b
:020f4900000c9a
:020f4a00000c99
:020f4b00000c98
:020f4c00000c97
:020f4d00000c96
:020f4e00000c95
:020f4f00000c94
:020f5000000c93
:020f5100000c92
:020f5200000c91
:020f5300000c90
:020f5400000c8f
:020f5500000c8e
:020f5600000c8d
:020f5700000c8c
:020f5800000c8b
:020f5900000c8a
:020f5a00000c89
:020f5b00000c88
:020f5c00000c87
:020f5d00000c86
:020f5e00000c85
:020f5f00000c84
:020f6000000c83
:020f6100000c82
:020f6200000c81
:020f6300000c80
:020f6400000c7f
:020f6500000c7e
:020f6600000c7d
:020f6700000c7c
:020f6800000c7b
:020f6900000c7a
:020f6a00000c79
:020f6b00000c78
:020f6c00000c77
:020f6d00000c76
:020f6e00000c75
:020f6f00000c74
:020f7000000c73
:020f7100000c72
:020f7200000c71
:020f7300000c70
:020f7400000c6f
:020f7500000c6e
:020f7600000c6d
:020f7700000c6c
:020f7800000c6b
:020f7900000c6a
:020f7a00000c69
:020f7b00000c68
:020f7c00000c67
:020f7d00000c66
:020f7e00000c65
:020f7f00000c64
:020f8000000c63
:020f8100000c62
:020f8200000c61
:020f8300000c60
:020f8400000c5f
:020f8500000c5e
:020f8600000c5d
:020f8700000c5c
:020f8800000c5b
:020f8900000c5a
:020f8a00000c59
:020f8b00000c58
:020f8c00000c57
:020f8d00000c56
:020f8e00000c55
:020f8f00000c54
:020f9000000c53
:020f9100000c52
:020f9200000c51
:020f9300000c50
:020f9400000c4f
:020f9500000c4e
:020f9600000c4d
:020f9700000c4c
:020f9800000c4b
:020f9900000c4a
:020f9a00000c49
:020f9b00000c48
:020f9c00000c47
:020f9d00000c46
:020f9e00000c45
:020f9f00000c44
